:100000000C9459000C946B000C946B000C946B00D6
:100010000C946B000C946B000C946B000C946B00B4
:100020000C946B000C946B000C946B000C946B00A4
:100030000C946B000C946B000C946B000C946B0094
:100040000C946B000C946B000C946B000C946B0084
:100050000C946B000C946B000C946B000C946B0074
:100060000C946B000C946B00F206C902E0021403BE
:100070002A035F0388039703C003EF0318044704B0
:1000800070049F04C804F70420054F057405990502
:10009000BA05E105EA05FD0510062D064A065D06CE
:1000A0006E06750687069806AA06C106D806E406F7
:1000B000FE0211241FBECFEFD8E0DEBFCDBF27E088
:1000C000A0E0B1E001C01D92AF38B207E1F70E9495
:1000D00008080C94F10A0C9400008F929F92AF9242
:1000E000BF92EF92FF920F931F93CF93DF93CDB701
:1000F000DEB760970FB6F894DEBF0FBECDBF49875D
:100100005A876B877C870D871E872F87388B1982CC
:100110001A821B821C821D821E821F821886F70192
:100120004081518162817381407E4083518362832B
:1001300073838C309105C9F130F48830910559F002
:100140000A97F1F0B2C08E30910509F443C0409790
:1001500009F469C0AAC009851A852B853C858D855F
:100160009E85AF85B889082B192B2A2B3B2B098339
:100170001A832B833C831D821E821F82188695C0A2
:1001800009851A852B853C858D859E85AF85B88927
:10019000082319232A233B2309831A832B833C83B7
:1001A0001D821E821F82188680C009851A852B85B4
:1001B0003C858D859E85AF85B889082719272A2714
:1001C0003B2709831A832B833C831D821E821F8257
:1001D00018866BC009851A852B853C858D859E8583
:1001E000AF85B889080F191F2A1F3B1F09831A837F
:1001F0002B833C831D821E821F82188689859A85E7
:10020000AB85BC858D859E85AF85B88989818A81BE
:100210008B818C818D818E818F81888589859A855E
:10022000AB85BC8542C06D857E858F8598890E948F
:100230002F0A9B01AC0160E070E080E89FE40E941F
:1002400086094B015C0169857A858B859C850E94B6
:100250002F0AA50194010E9487090E94F8092983A9
:100260003A834B835C836D837E838F8398878985F4
:100270009A85AB85BC858D859E85AF85B88989813A
:100280008A818B818C818D818E818F818885898502
:100290009A85AB85BC85F70180819181A281B3816C
:1002A000826080839183A283B38389818A818B81D9
:1002B0008C818D818E818F81888589818A818B81D6
:1002C0008C818D818E818F81888589819A81AB8196
:1002D000BC81892B8A2B8B2B51F4F7018081918172
:1002E000A281B381846080839183A283B383F70169
:1002F000408151816281738181E043FF80E0F70199
:10030000408151816281738191E041FF90E09817B3
:1003100051F0F70180819181A281B3818061808356
:100320009183A283B38369817A818B819C8160965A
:100330000FB6F894DEBF0FBECDBFDF91CF911F91F6
:100340000F91FF90EF90BF90AF909F908F90089586
:1003500014B817B81AB815B818B81BB808958F9202
:100360009F92AF92BF92CF92DF92EF92FF9280E086
:1003700090E00E94F5074B015C0181E090E00E9453
:10038000F5076B017C0146B150E060E070E0BA0116
:100390005527442783B190E0A0E0B0E0BA2FA92F01
:1003A000982F8827482B592B6A2B7B2B89B1482BF8
:1003B00082E090E00E94E107BB27AB2D9A2D892DAA
:1003C00084B9C501AA27BB2787B98AB8BB27AF2D37
:1003D0009E2D8D2D85B9C701AA27BB2788B9CBB81B
:1003E000FF90EF90DF90CF90BF90AF909F908F9055
:1003F000089510929A011092990110929101109211
:100400009201109293011092940110929501109212
:100410009601109297011092980110928D011092FE
:100420008E0110928F011092900110928C01109207
:100430008B0110928A01109289011092850110920D
:100440008601109287011092880110928401109207
:1004500080011092810110928201109283010E940A
:10046000A80180E00DC0E82FF0E0EE0FFF1FEE0FB7
:10047000FF1FE050FF4F10821182128213828F5FA4
:10048000803288F30E940D080E94FF080E94CE0768
:100490000895CF92DF92EF92FF920F931F93CF9325
:1004A000DF93CDB7DEB72C970FB6F894DEBF0FBE43
:1004B000CDBF80918401813031F120F0823009F488
:1004C0005CC0E3C48091990190919A019C012F5FD7
:1004D0003F4F30939A01209399010E94E1082093A5
:1004E0009101309392014093930150939401609352
:1004F000950170939601809397019093980181E004
:1005000080938401C4C4B0919101A0919201F091B3
:100510009301E0919401D0909501E0909601F090C4
:100520009701109198012B2F3A2F4F2F5E2F6D2D91
:100530007E2D8F2D912F00E30E94D50A20938B01F1
:1005400030938C012B2F3A2F4F2F5E2F6D2D7E2D48
:100550008F2D912F00E20E94D50A209389013093BC
:100560008A01B0938501A0938601F0938701E093FF
:10057000880182E0809384018AC4E0918B01F0912C
:100580008C01E532F10508F02BC4EC5CFF4F0C94B4
:10059000CD0AE0918901F0918A01EE0FFF1FEE0F65
:1005A000FF1FE050FF4F8091850190918601A0913F
:1005B0008701B091880180839183A283B38312C4A1
:1005C000E0908901F0908A01E0918501F091860127
:1005D000EE0FFF1FEE0FFF1FE050FF4F8081918154
:1005E0000E94F507F701EE0FFF1FEE0FFF1FE0500F
:1005F000FF4F6083718382839383F4C3E09185010D
:10060000F0918601EE0FFF1FEE0FFF1FE050FF4F2E
:1006100040815181628173818091890190918A0129
:1006200093950E94E107DEC3E0908901F0908A0172
:1006300080918501909186010E94F507F701EE0FE8
:10064000FF1FEE0FFF1FE050FF4F60837183828317
:100650009383C8C38091890190918A01823091056A
:10066000E9F482E090E00E94F507E0918501F091C5
:100670008601EE0FFF1FEE0FFF1FE050FF4F0081BE
:10068000118122813381AB01BC01402751276227B0
:10069000732781E090E00E94E107A4C3E091850107
:1006A000F0918601EE0FFF1FEE0FFF1FE050FF4F8E
:1006B00040815181628173810E94E10793C38091DF
:1006C000890190918A0182309105B9F481E090E02E
:1006D0000E94F50700918501109186012091870104
:1006E00030918801AB01BC01402751276227732755
:1006F00081E090E00E94E10775C34091850150912F
:10070000860160918701709188010E94E1076AC3A8
:10071000E0918901F0918A01EE0FFF1FEE0FFF1F9C
:10072000E050FF4F10821182128213825BC38091CE
:10073000890190918A010091850110918601209193
:10074000870130918801880F991F880F991FAC018C
:1007500040505F4F6A01FA0140815181628173818B
:100760000F2EFDE8EF2EF1E0FF2EF02D88E090E057
:100770000E946D00F601608371838283938332C38C
:100780008091890190918A01E0918501F091860123
:10079000EE0FFF1FEE0FFF1FE050FF4F0081118192
:1007A00022813381880F991F880F991FAC01405017
:1007B0005F4F6A01FA0140815181628173810F2E7E
:1007C000FDE8EF2EF1E0FF2EF02D88E090E00E9492
:1007D0006D00F601608371838283938303C38091EC
:1007E000890190918A0100918501109186012091E3
:1007F000870130918801880F991F880F991FAC01DC
:1008000040505F4F6A01FA014081518162817381DA
:100810000F2EFDE8EF2EF1E0FF2EF02D8AE090E0A4
:100820000E946D00F6016083718382839383DAC234
:100830008091890190918A01E0918501F091860172
:10084000EE0FFF1FEE0FFF1FE050FF4F00811181E1
:1008500022813381880F991F880F991FAC01405066
:100860005F4F6A01FA0140815181628173810F2ECD
:10087000FDE8EF2EF1E0FF2EF02D8AE090E00E94DF
:100880006D00F6016083718382839383ABC2809194
:10089000890190918A010091850110918601209132
:1008A000870130918801880F991F880F991FAC012B
:1008B00040505F4F6A01FA0140815181628173812A
:1008C0000F2EFDE8EF2EF1E0FF2EF02D8CE090E0F2
:1008D0000E946D00F601608371838283938382C2DC
:1008E0008091890190918A01E0918501F0918601C2
:1008F000EE0FFF1FEE0FFF1FE050FF4F0081118131
:1009000022813381880F991F880F991FAC014050B5
:100910005F4F6A01FA0140815181628173810F2E1C
:10092000FDE8EF2EF1E0FF2EF02D8CE090E00E942C
:100930006D00F601608371838283938353C280913B
:10094000890190918A010091850110918601209181
:10095000870130918801880F991F880F991FAC017A
:1009600040505F4F6A01FA01408151816281738179
:100970000F2EFDE8EF2EF1E0FF2EF02D8EE090E03F
:100980000E946D00F60160837183828393832AC283
:100990008091890190918A01E0918501F091860111
:1009A000EE0FFF1FEE0FFF1FE050FF4F0081118180
:1009B00022813381880F991F880F991FAC01405005
:1009C0005F4F6A01FA0140815181628173810F2E6C
:1009D000FDE8EF2EF1E0FF2EF02D8EE090E00E947A
:1009E0006D00F6016083718382839383FBC18091E4
:1009F000890190918A0100918501109186012091D1
:100A0000870130918801880F991F880F991FAC01C9
:100A100040505F4F6A01FA014081518162817381C8
:100A20000F2EFDE8EF2EF1E0FF2EF02D80E190E09B
:100A30000E946D00F6016083718382839383D2C12B
:100A40008091890190918A01E0918501F091860160
:100A5000EE0FFF1FEE0FFF1FE050FF4F00811181CF
:100A600022813381880F991F880F991FAC01405054
:100A70005F4F6A01FA0140815181628173810F2EBB
:100A8000FDE8EF2EF1E0FF2EF02D80E190E00E94D6
:100A90006D00F6016083718382839383A3C180918B
:100AA000890190918A01880F991F880F991F9C01D5
:100AB00020503F4F6901F90140815181628173816A
:100AC0000F2EFDE8EF2EF1E0FF2EF02D01E010E0FB
:100AD00020E030E08EE090E00E946D00F60160833F
:100AE0007183828393837EC18091890190918A0171
:100AF000880F991F880F991F9C0120503F4F690153
:100B0000F90140815181628173810F2EFDE8EF2E42
:100B1000F1E0FF2EF02D01E010E020E030E080E178
:100B200090E00E946D00F60160837183828393835D
:100B300059C1E0918901F0918A01EE0FFF1FEE0F7C
:100B4000FF1FE050FF4F408151816281738100910E
:100B500085011091860120918701309188010F2E27
:100B6000FDE8EF2EF1E0FF2EF02D80E190E00E94F5
:100B70006D0038C1E0918501F0918601EE0FFF1FF5
:100B8000EE0FFF1FE050FF4F008111812281338162
:100B9000E0918901F0918A01EE0FFF1FEE0FFF1F18
:100BA000E050FF4F40815181628173810F2EFDE83B
:100BB000EF2EF1E0FF2EF02D80E190E00E946D001D
:100BC00011C18091890190918A0190939A0180933B
:100BD000990108C180918D0190918E01A0918F01A2
:100BE000B091900182FFFEC08091890190918A01AD
:100BF00090939A0180939901F5C080918D01909115
:100C00008E01A0918F01B091900182FDEBC0809187
:100C1000890190918A0190939A0180939901E2C091
:100C200080918D0190918E01A0918F01B0919001E2
:100C300084FDD8C080918D0190918E01A0918F018B
:100C4000B091900182FDCEC08091890190918A017E
:100C500090939A0180939901C5C080918D019091E4
:100C60008E01A0918F01B091900184FD0AC0809106
:100C70008D0190918E01A0918F01B091900182FF22
:100C8000B1C08091890190918A0190939A018093DB
:100C90009901A8C080918D0190918E01A0918F0142
:100CA000B091900184FF9EC08091890190918A014A
:100CB00090939A018093990195C0609199017091E8
:100CC0009A0180E090E00E94200980918901909132
:100CD0008A0190939A018093990184C00E945509DA
:100CE00070939A01609399017DC00E945509709399
:100CF0009A0160939901EDE8F1E080819181A281F0
:100D0000B381806280839183A283B3836BC0E091BF
:100D10008901F0918A01EE0FFF1FEE0FFF1FE050D7
:100D2000FF4F60817181828193810E9420095AC0A6
:100D3000E0908901F0908A010E945509F701EE0FB9
:100D4000FF1FEE0FFF1FE050FF4F60837183828310
:100D5000938348C0E0918901F0918A01EE0FFF1F53
:100D6000EE0FFF1FE050FF4F80819181A281B38180
:100D7000880F991FAA1FBB1F80839183A283B3830F
:100D800031C0E0918901F0918A01EE0FFF1FEE0F53
:100D9000FF1FE050FF4F80819181A281B381B69502
:100DA000A7959795879580839183A283B3831AC073
:100DB000EDE8F1E080819181A281B381806280833E
:100DC0009183A283B3830EC0EDE8F1E0808191812D
:100DD000A281B3818F7D80839183A283B38302C07C
:100DE0000E94F90180918D0190918E01A0918F0157
:100DF000B091900185FF46C084E090E00E94F50725
:100E00006D837E838F83988783E090E00E94F5074F
:100E100069837A838B839C838D819E81AF81B88522
:100E200080FF30C089819A81AB81BC8180FF2AC05C
:100E30008D819E81AF81B8858E7F8D839E83AF83A8
:100E4000B8874D815E816F81788584E090E00E9453
:100E5000E1076091990170919A0180E090E00E9411
:100E6000200982E090E090939A0180939901EDE847
:100E7000F1E080819181A281B3818F7D8083918314
:100E8000A283B3831092840102C00E94F9010E94E0
:100E9000AF0182E090E00E94F50769877A878B872F
:100EA0009C8710E05DC089859A85AB85BC85C12C87
:100EB000D12C7601C394012E04C0CC0CDD1CEE1C99
:100EC000FF1C0A94D2F78C219D21AE21BF2131E075
:100ED000892B8A2B8B2B09F430E080918001909133
:100EE0008101A0918201B09183018C219D21AE21CD
:100EF000BF2121E0892B8A2B8B2B09F420E03217AC
:100F000071F185E090E00E94F5076D837E838F8309
:100F100098878D819E81AF81B885C822D922EA2227
:100F2000FB22CD28CE28CF28D1F084E090E00E948B
:100F3000F50769837A838B839C8389819A81AB814E
:100F4000BC81816089839A83AB83BC8349815A8148
:100F50006B817C8184E090E00E94E10704C01F5F08
:100F6000103208F4A0CF89859A85AB85BC85809323
:100F7000800190938101A0938201B09383012C960C
:100F80000FB6F894DEBF0FBECDBFDF91CF911F919A
:100F90000F91FF90EF90DF90CF90089580E090E068
:100FA0000CC0FC01EE0FFF1FEE0FFF1FE556FE4FBA
:100FB00010821182128213820196883C910588F377
:100FC0000895883C910570F4880F991F880F991F28
:100FD000FC01E556FE4F408351836283738380E0BA
:100FE00090E0089581E090E00895883C910560F4D8
:100FF000880F991F880F991FFC01E556FE4F6081ED
:10100000718182819381089560E070E0CB01089541
:101010000E94F9010E944902FDCF8091BB04811119
:10102000CFC0ECEBF4E0108211821282138294E0C4
:101030009483158285E18683178210861186128635
:1010400013861486158616861786108A118A128AC8
:10105000138A2FE0248B158A868B178A108E118EA7
:10106000128E138E148E158E168E178E10A211A24C
:1010700012A213A226E024A315A22BE126A317A2F5
:1010800010A611A612A613A675E074A715A686A72A
:1010900017A610AA81E081AB12AA13AA30E134ABE3
:1010A00015AA86AB17AA30AF11AE12AE13AE14AEAE
:1010B00015AE96AF17AEECEFF4E0108250E251831C
:1010C0001282138241E14483158286831782E4E011
:1010D000F5E0408311821282138284831582968305
:1010E0001782ECE0F5E010821182128213821482E2
:1010F000158222E226831782E4E1F5E080831182E3
:101100001282138228E12483158286831782ECE100
:10111000F5E0208311821282138263E064831582DA
:1011200096831782E4E2F5E04083118212821382F3
:101130007483158296831782ECE2F5E010821182A7
:1011400012821382148215824CE146831782E4E3F3
:10115000F5E042E0408311821282138224831582DB
:1011600066831782ECE3F5E01082518312821382CA
:101170002483158229E026831782E4E4F5E01082B7
:1011800011821282138223E12483158226E12683B1
:101190001782ECE4F5E030831182128213824483DB
:1011A000158296831782E4E5F5E01082118212829F
:1011B0001382148215829DE1968317828093BB046B
:1011C00008958832910590F4880F991F880F991F10
:1011D000880F991FFC01E454FB4F2081318142812B
:1011E00053816481758186819781089520E030E084
:1011F00040E050E060E070E080E090E0089580E042
:1012000090E0DC010EC0FC01EE0FFF1FEE0FFF1F90
:10121000E450FA4F10821182128213820196A11DAE
:10122000B11D84369105A105B10568F383E690E010
:1012300090938E0780938D0781E080938C070895AB
:1012400040918D0750918E074115510559F120911C
:101250008C07222389F09A01220F331F220F331F9C
:10126000F901E450FA4F6083718382839383109273
:101270008C0780E090E008959A0121503109309365
:101280008E0720938D079A01220F331F220F331FE1
:10129000F901E450FA4F608371838283938380E085
:1012A00090E0089581E090E0089580918C0781118D
:1012B00029C080918D0790918E078336910598F40F
:1012C0009C012F5F3F4F30938E0720938D07880F2F
:1012D000991F880F991FFC01E450FA4F60817181BA
:1012E00082819381089521E020938C07880F991FB4
:1012F000880F991FFC01E450FA4F6081718182814F
:101300009381089560E070E0CB0108955058BB27A9
:10131000AA270E949E090C94930A0E94850A38F01D
:101320000E948C0A20F039F49F3F19F426F40C94A3
:10133000720A0EF4E095E7FB0C946C0AE92F0E9408
:10134000A40A58F3BA17620773078407950720F0B9
:1013500079F4A6F50C94C60A0EF4E0950B2EBA2F7C
:10136000A02D0B01B90190010C01CA01A0011124AB
:10137000FF27591B99F0593F50F4503E68F11A1657
:10138000F040A22F232F342F4427585FF3CF4695E8
:1013900037952795A795F0405395C9F77EF41F160A
:1013A000BA0B620B730B840BBAF09150A1F0FF0FD4
:1013B000BB1F661F771F881FC2F70EC0BA0F621FC0
:1013C000731F841F48F4879577956795B795F795B0
:1013D0009E3F08F0B0CF9395880F08F09927EE0F45
:1013E000979587950895BEE304D008F490E8089592
:1013F000BFE322273327A9010E94AC0A60F19F575F
:1014000048F1B91740F1BFE3B91B9927B8503AF436
:10141000660F771F881F991FB395D2F316C0B85077
:101420004AF0232F342F452F562F672F782F8827E8
:10143000B850BAF7B85F49F0869577956795579594
:10144000479537952795BA95B9F716F40E94750A0E
:1014500088940895889460E070E0CB010895E89442
:1014600009C097FB3EF490958095709561957F4FEC
:101470008F4F9F4F9923A9F0F92F96E9BB2793959A
:10148000F695879577956795B795F111F8CFFAF4AA
:10149000BB0F11F460FF1BC06F5F7F4F8F4F9F4FDB
:1014A00016C0882311F096E911C0772321F09EE839
:1014B000872F762F05C0662371F096E8862F70E09F
:1014C00060E02AF09A95660F771F881FDAF7880F79
:1014D0009695879597F9089597F99F6780E870E04A
:1014E00060E008959FEF80EC089590958095709549
:1014F000609550954095309521953F4F4F4F5F4FE8
:101500006F4F7F4F8F4F9F4F089500240A941616F8
:10151000170618060906089500240A9412161306E1
:10152000140605060895092E0394000C11F488236F
:1015300052F0BB0F40F4BF2B11F460FF04C06F5F8B
:101540007F4F8F4F9F4F089557FD9058440F551F61
:1015500059F05F3F71F04795880F97FB991F61F035
:101560009F3F79F087950895121613061406551FAC
:10157000F2CF4695F1DF08C0161617061806991F18
:10158000F1CF86957105610508940895E894BB270D
:1015900066277727CB0197F90895EE0FFF1F059077
:1015A000F491E02D099497FB10F8169400080F931E
:1015B000083098F00850232F342F452F562F672FCF
:1015C000782F892F902DF4CF05949795879577954F
:1015D000679557954795379527950A95AAF70F91DF
:0615E0000895F894FFCF0E
:00000001FF
